{
  "_format": "hh-sol-artifact-1",
  "contractName": "book",
  "sourceName": "contracts/book.sol",
  "abi": [
    {
      "inputs": [
        {
          "internalType": "address",
          "name": "marketplaceAddress",
          "type": "address"
        }
      ],
      "stateMutability": "nonpayable",
      "type": "constructor"
    },
    {
      "anonymous": false,
      "inputs": [
        {
          "indexed": true,
          "internalType": "address",
          "name": "owner",
          "type": "address"
        },
        {
          "indexed": true,
          "internalType": "address",
          "name": "approved",
          "type": "address"
        },
        {
          "indexed": true,
          "internalType": "uint256",
          "name": "tokenId",
          "type": "uint256"
        }
      ],
      "name": "Approval",
      "type": "event"
    },
    {
      "anonymous": false,
      "inputs": [
        {
          "indexed": true,
          "internalType": "address",
          "name": "owner",
          "type": "address"
        },
        {
          "indexed": true,
          "internalType": "address",
          "name": "operator",
          "type": "address"
        },
        {
          "indexed": false,
          "internalType": "bool",
          "name": "approved",
          "type": "bool"
        }
      ],
      "name": "ApprovalForAll",
      "type": "event"
    },
    {
      "anonymous": false,
      "inputs": [
        {
          "indexed": true,
          "internalType": "address",
          "name": "from",
          "type": "address"
        },
        {
          "indexed": true,
          "internalType": "address",
          "name": "to",
          "type": "address"
        },
        {
          "indexed": true,
          "internalType": "uint256",
          "name": "tokenId",
          "type": "uint256"
        }
      ],
      "name": "Transfer",
      "type": "event"
    },
    {
      "anonymous": false,
      "inputs": [
        {
          "indexed": false,
          "internalType": "address",
          "name": "_address",
          "type": "address"
        },
        {
          "indexed": false,
          "internalType": "uint256",
          "name": "_tokenId",
          "type": "uint256"
        }
      ],
      "name": "minted",
      "type": "event"
    },
    {
      "inputs": [
        {
          "internalType": "uint256",
          "name": "_tokenId",
          "type": "uint256"
        },
        {
          "internalType": "address",
          "name": "buyer",
          "type": "address"
        }
      ],
      "name": "addtoken",
      "outputs": [],
      "stateMutability": "nonpayable",
      "type": "function"
    },
    {
      "inputs": [
        {
          "internalType": "address",
          "name": "to",
          "type": "address"
        },
        {
          "internalType": "uint256",
          "name": "tokenId",
          "type": "uint256"
        }
      ],
      "name": "approve",
      "outputs": [],
      "stateMutability": "nonpayable",
      "type": "function"
    },
    {
      "inputs": [
        {
          "internalType": "address",
          "name": "owner",
          "type": "address"
        }
      ],
      "name": "balanceOf",
      "outputs": [
        {
          "internalType": "uint256",
          "name": "",
          "type": "uint256"
        }
      ],
      "stateMutability": "view",
      "type": "function"
    },
    {
      "inputs": [
        {
          "internalType": "uint256",
          "name": "",
          "type": "uint256"
        }
      ],
      "name": "bronzeTokenIds",
      "outputs": [
        {
          "internalType": "uint256",
          "name": "",
          "type": "uint256"
        }
      ],
      "stateMutability": "view",
      "type": "function"
    },
    {
      "inputs": [
        {
          "internalType": "uint256",
          "name": "tokenId",
          "type": "uint256"
        }
      ],
      "name": "burnOffensiveContent",
      "outputs": [],
      "stateMutability": "nonpayable",
      "type": "function"
    },
    {
      "inputs": [
        {
          "internalType": "uint256",
          "name": "",
          "type": "uint256"
        }
      ],
      "name": "contentIds",
      "outputs": [
        {
          "internalType": "uint256",
          "name": "",
          "type": "uint256"
        }
      ],
      "stateMutability": "view",
      "type": "function"
    },
    {
      "inputs": [
        {
          "internalType": "uint256",
          "name": "",
          "type": "uint256"
        }
      ],
      "name": "contents",
      "outputs": [
        {
          "internalType": "enum book.TokenType",
          "name": "tokenType",
          "type": "uint8"
        },
        {
          "internalType": "enum book.ContentType",
          "name": "contentType",
          "type": "uint8"
        },
        {
          "internalType": "uint256",
          "name": "publicationDate",
          "type": "uint256"
        },
        {
          "internalType": "string",
          "name": "author",
          "type": "string"
        },
        {
          "internalType": "address",
          "name": "authorAddr",
          "type": "address"
        },
        {
          "internalType": "string",
          "name": "ipfsHash",
          "type": "string"
        },
        {
          "internalType": "string",
          "name": "coverImageHash",
          "type": "string"
        },
        {
          "internalType": "bool",
          "name": "onBid",
          "type": "bool"
        },
        {
          "internalType": "string",
          "name": "descriptionHash",
          "type": "string"
        },
        {
          "internalType": "uint256",
          "name": "Price",
          "type": "uint256"
        },
        {
          "internalType": "bool",
          "name": "isBurnt",
          "type": "bool"
        }
      ],
      "stateMutability": "view",
      "type": "function"
    },
    {
      "inputs": [],
      "name": "deployer",
      "outputs": [
        {
          "internalType": "address",
          "name": "",
          "type": "address"
        }
      ],
      "stateMutability": "view",
      "type": "function"
    },
    {
      "inputs": [
        {
          "internalType": "uint256",
          "name": "tokenId",
          "type": "uint256"
        }
      ],
      "name": "getApproved",
      "outputs": [
        {
          "internalType": "address",
          "name": "",
          "type": "address"
        }
      ],
      "stateMutability": "view",
      "type": "function"
    },
    {
      "inputs": [
        {
          "internalType": "uint256",
          "name": "tokenId",
          "type": "uint256"
        }
      ],
      "name": "getContentIndexByID",
      "outputs": [
        {
          "internalType": "uint256",
          "name": "",
          "type": "uint256"
        },
        {
          "internalType": "uint256",
          "name": "",
          "type": "uint256"
        },
        {
          "internalType": "bool",
          "name": "",
          "type": "bool"
        }
      ],
      "stateMutability": "nonpayable",
      "type": "function"
    },
    {
      "inputs": [
        {
          "internalType": "address",
          "name": "user",
          "type": "address"
        }
      ],
      "name": "getContentOfUserbyIndex",
      "outputs": [
        {
          "internalType": "uint256[]",
          "name": "",
          "type": "uint256[]"
        }
      ],
      "stateMutability": "nonpayable",
      "type": "function"
    },
    {
      "inputs": [
        {
          "internalType": "uint256",
          "name": "index",
          "type": "uint256"
        }
      ],
      "name": "getContentbyContentIndex",
      "outputs": [
        {
          "components": [
            {
              "internalType": "uint256[]",
              "name": "tokenIds",
              "type": "uint256[]"
            },
            {
              "internalType": "enum book.TokenType",
              "name": "tokenType",
              "type": "uint8"
            },
            {
              "internalType": "enum book.ContentType",
              "name": "contentType",
              "type": "uint8"
            },
            {
              "internalType": "uint256",
              "name": "publicationDate",
              "type": "uint256"
            },
            {
              "internalType": "string",
              "name": "author",
              "type": "string"
            },
            {
              "internalType": "address",
              "name": "authorAddr",
              "type": "address"
            },
            {
              "internalType": "string",
              "name": "ipfsHash",
              "type": "string"
            },
            {
              "internalType": "string",
              "name": "coverImageHash",
              "type": "string"
            },
            {
              "internalType": "bool",
              "name": "onBid",
              "type": "bool"
            },
            {
              "internalType": "string",
              "name": "descriptionHash",
              "type": "string"
            },
            {
              "internalType": "uint256",
              "name": "Price",
              "type": "uint256"
            },
            {
              "internalType": "bool",
              "name": "isBurnt",
              "type": "bool"
            }
          ],
          "internalType": "struct book.Content",
          "name": "content",
          "type": "tuple"
        }
      ],
      "stateMutability": "view",
      "type": "function"
    },
    {
      "inputs": [
        {
          "internalType": "uint256[]",
          "name": "contentIDs",
          "type": "uint256[]"
        }
      ],
      "name": "getContentbyContentIndexArray",
      "outputs": [
        {
          "components": [
            {
              "internalType": "uint256[]",
              "name": "tokenIds",
              "type": "uint256[]"
            },
            {
              "internalType": "enum book.TokenType",
              "name": "tokenType",
              "type": "uint8"
            },
            {
              "internalType": "enum book.ContentType",
              "name": "contentType",
              "type": "uint8"
            },
            {
              "internalType": "uint256",
              "name": "publicationDate",
              "type": "uint256"
            },
            {
              "internalType": "string",
              "name": "author",
              "type": "string"
            },
            {
              "internalType": "address",
              "name": "authorAddr",
              "type": "address"
            },
            {
              "internalType": "string",
              "name": "ipfsHash",
              "type": "string"
            },
            {
              "internalType": "string",
              "name": "coverImageHash",
              "type": "string"
            },
            {
              "internalType": "bool",
              "name": "onBid",
              "type": "bool"
            },
            {
              "internalType": "string",
              "name": "descriptionHash",
              "type": "string"
            },
            {
              "internalType": "uint256",
              "name": "Price",
              "type": "uint256"
            },
            {
              "internalType": "bool",
              "name": "isBurnt",
              "type": "bool"
            }
          ],
          "internalType": "struct book.Content[]",
          "name": "",
          "type": "tuple[]"
        }
      ],
      "stateMutability": "nonpayable",
      "type": "function"
    },
    {
      "inputs": [
        {
          "internalType": "uint256[]",
          "name": "arr",
          "type": "uint256[]"
        }
      ],
      "name": "getContentbyIndexArray",
      "outputs": [
        {
          "internalType": "uint256[]",
          "name": "",
          "type": "uint256[]"
        }
      ],
      "stateMutability": "nonpayable",
      "type": "function"
    },
    {
      "inputs": [
        {
          "internalType": "uint256",
          "name": "tokenId",
          "type": "uint256"
        }
      ],
      "name": "getContentofToken",
      "outputs": [
        {
          "components": [
            {
              "internalType": "uint256[]",
              "name": "tokenIds",
              "type": "uint256[]"
            },
            {
              "internalType": "enum book.TokenType",
              "name": "tokenType",
              "type": "uint8"
            },
            {
              "internalType": "enum book.ContentType",
              "name": "contentType",
              "type": "uint8"
            },
            {
              "internalType": "uint256",
              "name": "publicationDate",
              "type": "uint256"
            },
            {
              "internalType": "string",
              "name": "author",
              "type": "string"
            },
            {
              "internalType": "address",
              "name": "authorAddr",
              "type": "address"
            },
            {
              "internalType": "string",
              "name": "ipfsHash",
              "type": "string"
            },
            {
              "internalType": "string",
              "name": "coverImageHash",
              "type": "string"
            },
            {
              "internalType": "bool",
              "name": "onBid",
              "type": "bool"
            },
            {
              "internalType": "string",
              "name": "descriptionHash",
              "type": "string"
            },
            {
              "internalType": "uint256",
              "name": "Price",
              "type": "uint256"
            },
            {
              "internalType": "bool",
              "name": "isBurnt",
              "type": "bool"
            }
          ],
          "internalType": "struct book.Content",
          "name": "content",
          "type": "tuple"
        }
      ],
      "stateMutability": "nonpayable",
      "type": "function"
    },
    {
      "inputs": [
        {
          "internalType": "string",
          "name": "_tokentype",
          "type": "string"
        },
        {
          "internalType": "address",
          "name": "user",
          "type": "address"
        }
      ],
      "name": "getContentsByTokenTypeofUser",
      "outputs": [
        {
          "components": [
            {
              "internalType": "uint256[]",
              "name": "tokenIds",
              "type": "uint256[]"
            },
            {
              "internalType": "enum book.TokenType",
              "name": "tokenType",
              "type": "uint8"
            },
            {
              "internalType": "enum book.ContentType",
              "name": "contentType",
              "type": "uint8"
            },
            {
              "internalType": "uint256",
              "name": "publicationDate",
              "type": "uint256"
            },
            {
              "internalType": "string",
              "name": "author",
              "type": "string"
            },
            {
              "internalType": "address",
              "name": "authorAddr",
              "type": "address"
            },
            {
              "internalType": "string",
              "name": "ipfsHash",
              "type": "string"
            },
            {
              "internalType": "string",
              "name": "coverImageHash",
              "type": "string"
            },
            {
              "internalType": "bool",
              "name": "onBid",
              "type": "bool"
            },
            {
              "internalType": "string",
              "name": "descriptionHash",
              "type": "string"
            },
            {
              "internalType": "uint256",
              "name": "Price",
              "type": "uint256"
            },
            {
              "internalType": "bool",
              "name": "isBurnt",
              "type": "bool"
            }
          ],
          "internalType": "struct book.Content[]",
          "name": "",
          "type": "tuple[]"
        }
      ],
      "stateMutability": "nonpayable",
      "type": "function"
    },
    {
      "inputs": [
        {
          "internalType": "string",
          "name": "_tokentype",
          "type": "string"
        }
      ],
      "name": "getContentsOfEachTokenType",
      "outputs": [
        {
          "components": [
            {
              "internalType": "uint256[]",
              "name": "tokenIds",
              "type": "uint256[]"
            },
            {
              "internalType": "enum book.TokenType",
              "name": "tokenType",
              "type": "uint8"
            },
            {
              "internalType": "enum book.ContentType",
              "name": "contentType",
              "type": "uint8"
            },
            {
              "internalType": "uint256",
              "name": "publicationDate",
              "type": "uint256"
            },
            {
              "internalType": "string",
              "name": "author",
              "type": "string"
            },
            {
              "internalType": "address",
              "name": "authorAddr",
              "type": "address"
            },
            {
              "internalType": "string",
              "name": "ipfsHash",
              "type": "string"
            },
            {
              "internalType": "string",
              "name": "coverImageHash",
              "type": "string"
            },
            {
              "internalType": "bool",
              "name": "onBid",
              "type": "bool"
            },
            {
              "internalType": "string",
              "name": "descriptionHash",
              "type": "string"
            },
            {
              "internalType": "uint256",
              "name": "Price",
              "type": "uint256"
            },
            {
              "internalType": "bool",
              "name": "isBurnt",
              "type": "bool"
            }
          ],
          "internalType": "struct book.Content[]",
          "name": "",
          "type": "tuple[]"
        }
      ],
      "stateMutability": "nonpayable",
      "type": "function"
    },
    {
      "inputs": [
        {
          "internalType": "address",
          "name": "addr",
          "type": "address"
        }
      ],
      "name": "getTokensOwnedByUser",
      "outputs": [
        {
          "internalType": "uint256[]",
          "name": "",
          "type": "uint256[]"
        }
      ],
      "stateMutability": "view",
      "type": "function"
    },
    {
      "inputs": [
        {
          "internalType": "uint256",
          "name": "",
          "type": "uint256"
        }
      ],
      "name": "goldTokenIds",
      "outputs": [
        {
          "internalType": "uint256",
          "name": "",
          "type": "uint256"
        }
      ],
      "stateMutability": "view",
      "type": "function"
    },
    {
      "inputs": [
        {
          "internalType": "address",
          "name": "owner",
          "type": "address"
        },
        {
          "internalType": "address",
          "name": "operator",
          "type": "address"
        }
      ],
      "name": "isApprovedForAll",
      "outputs": [
        {
          "internalType": "bool",
          "name": "",
          "type": "bool"
        }
      ],
      "stateMutability": "view",
      "type": "function"
    },
    {
      "inputs": [
        {
          "internalType": "string",
          "name": "tokenURI",
          "type": "string"
        },
        {
          "components": [
            {
              "internalType": "uint256[]",
              "name": "tokenIds",
              "type": "uint256[]"
            },
            {
              "internalType": "enum book.TokenType",
              "name": "tokenType",
              "type": "uint8"
            },
            {
              "internalType": "enum book.ContentType",
              "name": "contentType",
              "type": "uint8"
            },
            {
              "internalType": "uint256",
              "name": "publicationDate",
              "type": "uint256"
            },
            {
              "internalType": "string",
              "name": "author",
              "type": "string"
            },
            {
              "internalType": "address",
              "name": "authorAddr",
              "type": "address"
            },
            {
              "internalType": "string",
              "name": "ipfsHash",
              "type": "string"
            },
            {
              "internalType": "string",
              "name": "coverImageHash",
              "type": "string"
            },
            {
              "internalType": "bool",
              "name": "onBid",
              "type": "bool"
            },
            {
              "internalType": "string",
              "name": "descriptionHash",
              "type": "string"
            },
            {
              "internalType": "uint256",
              "name": "Price",
              "type": "uint256"
            },
            {
              "internalType": "bool",
              "name": "isBurnt",
              "type": "bool"
            }
          ],
          "internalType": "struct book.Content",
          "name": "content",
          "type": "tuple"
        },
        {
          "internalType": "uint256",
          "name": "gold",
          "type": "uint256"
        },
        {
          "internalType": "uint256",
          "name": "silver",
          "type": "uint256"
        },
        {
          "internalType": "uint256",
          "name": "bronze",
          "type": "uint256"
        }
      ],
      "name": "mintBatch",
      "outputs": [
        {
          "internalType": "uint256",
          "name": "",
          "type": "uint256"
        }
      ],
      "stateMutability": "payable",
      "type": "function"
    },
    {
      "inputs": [
        {
          "internalType": "string",
          "name": "tokenURI",
          "type": "string"
        },
        {
          "components": [
            {
              "internalType": "uint256[]",
              "name": "tokenIds",
              "type": "uint256[]"
            },
            {
              "internalType": "enum book.TokenType",
              "name": "tokenType",
              "type": "uint8"
            },
            {
              "internalType": "enum book.ContentType",
              "name": "contentType",
              "type": "uint8"
            },
            {
              "internalType": "uint256",
              "name": "publicationDate",
              "type": "uint256"
            },
            {
              "internalType": "string",
              "name": "author",
              "type": "string"
            },
            {
              "internalType": "address",
              "name": "authorAddr",
              "type": "address"
            },
            {
              "internalType": "string",
              "name": "ipfsHash",
              "type": "string"
            },
            {
              "internalType": "string",
              "name": "coverImageHash",
              "type": "string"
            },
            {
              "internalType": "bool",
              "name": "onBid",
              "type": "bool"
            },
            {
              "internalType": "string",
              "name": "descriptionHash",
              "type": "string"
            },
            {
              "internalType": "uint256",
              "name": "Price",
              "type": "uint256"
            },
            {
              "internalType": "bool",
              "name": "isBurnt",
              "type": "bool"
            }
          ],
          "internalType": "struct book.Content",
          "name": "content",
          "type": "tuple"
        }
      ],
      "name": "mintOneToken",
      "outputs": [
        {
          "internalType": "uint256",
          "name": "",
          "type": "uint256"
        }
      ],
      "stateMutability": "payable",
      "type": "function"
    },
    {
      "inputs": [],
      "name": "name",
      "outputs": [
        {
          "internalType": "string",
          "name": "",
          "type": "string"
        }
      ],
      "stateMutability": "view",
      "type": "function"
    },
    {
      "inputs": [
        {
          "internalType": "uint256",
          "name": "tokenId",
          "type": "uint256"
        }
      ],
      "name": "ownerOf",
      "outputs": [
        {
          "internalType": "address",
          "name": "",
          "type": "address"
        }
      ],
      "stateMutability": "view",
      "type": "function"
    },
    {
      "inputs": [
        {
          "internalType": "uint256",
          "name": "_tokenId",
          "type": "uint256"
        },
        {
          "internalType": "address",
          "name": "seller",
          "type": "address"
        }
      ],
      "name": "removetoken",
      "outputs": [],
      "stateMutability": "nonpayable",
      "type": "function"
    },
    {
      "inputs": [
        {
          "internalType": "address",
          "name": "from",
          "type": "address"
        },
        {
          "internalType": "address",
          "name": "to",
          "type": "address"
        },
        {
          "internalType": "uint256",
          "name": "tokenId",
          "type": "uint256"
        }
      ],
      "name": "safeTransferFrom",
      "outputs": [],
      "stateMutability": "nonpayable",
      "type": "function"
    },
    {
      "inputs": [
        {
          "internalType": "address",
          "name": "from",
          "type": "address"
        },
        {
          "internalType": "address",
          "name": "to",
          "type": "address"
        },
        {
          "internalType": "uint256",
          "name": "tokenId",
          "type": "uint256"
        },
        {
          "internalType": "bytes",
          "name": "_data",
          "type": "bytes"
        }
      ],
      "name": "safeTransferFrom",
      "outputs": [],
      "stateMutability": "nonpayable",
      "type": "function"
    },
    {
      "inputs": [
        {
          "internalType": "address",
          "name": "operator",
          "type": "address"
        },
        {
          "internalType": "bool",
          "name": "approved",
          "type": "bool"
        }
      ],
      "name": "setApprovalForAll",
      "outputs": [],
      "stateMutability": "nonpayable",
      "type": "function"
    },
    {
      "inputs": [
        {
          "internalType": "uint256",
          "name": "",
          "type": "uint256"
        }
      ],
      "name": "silverTokenIds",
      "outputs": [
        {
          "internalType": "uint256",
          "name": "",
          "type": "uint256"
        }
      ],
      "stateMutability": "view",
      "type": "function"
    },
    {
      "inputs": [
        {
          "internalType": "bytes4",
          "name": "interfaceId",
          "type": "bytes4"
        }
      ],
      "name": "supportsInterface",
      "outputs": [
        {
          "internalType": "bool",
          "name": "",
          "type": "bool"
        }
      ],
      "stateMutability": "view",
      "type": "function"
    },
    {
      "inputs": [],
      "name": "symbol",
      "outputs": [
        {
          "internalType": "string",
          "name": "",
          "type": "string"
        }
      ],
      "stateMutability": "view",
      "type": "function"
    },
    {
      "inputs": [
        {
          "internalType": "uint256",
          "name": "tokenId",
          "type": "uint256"
        }
      ],
      "name": "tokenURI",
      "outputs": [
        {
          "internalType": "string",
          "name": "",
          "type": "string"
        }
      ],
      "stateMutability": "view",
      "type": "function"
    },
    {
      "inputs": [
        {
          "internalType": "address",
          "name": "from",
          "type": "address"
        },
        {
          "internalType": "address",
          "name": "to",
          "type": "address"
        },
        {
          "internalType": "uint256",
          "name": "tokenId",
          "type": "uint256"
        }
      ],
      "name": "transferFrom",
      "outputs": [],
      "stateMutability": "nonpayable",
      "type": "function"
    },
    {
      "inputs": [
        {
          "internalType": "address",
          "name": "",
          "type": "address"
        },
        {
          "internalType": "uint256",
          "name": "",
          "type": "uint256"
        }
      ],
      "name": "userOwnedTokens",
      "outputs": [
        {
          "internalType": "uint256",
          "name": "",
          "type": "uint256"
        }
      ],
      "stateMutability": "view",
      "type": "function"
    }
  ],
  "bytecode": "0x60806040523480156200001157600080fd5b5060405162004e1138038062004e11833981016040819052620000349162000205565b60405180604001604052806007815260200166109bdbdad3919560ca1b8152506040518060400160405280600781526020016610dbdb9d195b9d60ca1b81525081600090805190602001906200008c9291906200015f565b508051620000a29060019060208401906200015f565b5050601080546001600160a01b03939093166001600160a01b0319938416179055506008602052666a94d74f4300007f5eff886ea0ce6ca488a3d6e336d6c0f75f46d19b42c06ce5ee98e42c96d256c75566470de4df8200007fad67d757c34507f157cacfa2e3153e9f260a2244f30428821be7be64587ac55f556002600052662386f26fc100007f6add646517a5b0f6793cd5891b7937d28a5b2981a5d88ebc7cd776088fea9041556009805433921691909117905562000272565b8280546200016d9062000235565b90600052602060002090601f016020900481019282620001915760008555620001dc565b82601f10620001ac57805160ff1916838001178555620001dc565b82800160010185558215620001dc579182015b82811115620001dc578251825591602001919060010190620001bf565b50620001ea929150620001ee565b5090565b5b80821115620001ea5760008155600101620001ef565b60006020828403121562000217578081fd5b81516001600160a01b03811681146200022e578182fd5b9392505050565b600181811c908216806200024a57607f821691505b602082108114156200026c57634e487b7160e01b600052602260045260246000fd5b50919050565b614b8f80620002826000396000f3fe6080604052600436106101f95760003560e01c806370a082311161010d578063b88d4fde116100a0578063dac561181161006f578063dac5611814610624578063e985e9c514610644578063ef28fe9b1461068d578063f6f5200a146106ad578063f82ef5b3146106c057600080fd5b8063b88d4fde146105a4578063c27d44af146105c4578063c87b56dd146105e4578063d5f394881461060457600080fd5b8063aa226243116100dc578063aa2262431461050d578063b494fd221461052d578063b5ecf9121461054d578063b7d17b3c1461058457600080fd5b806370a082311461048b57806376b333f7146104ab57806395d89b41146104d8578063a22cb465146104ed57600080fd5b80631b5418511161019057806342842e0e1161015f57806342842e0e146103f8578063535cd555146104185780635902772e1461042b5780636352211e1461044b5780636373ee211461046b57600080fd5b80631b5418511461035b57806323b872dd146103985780633f96e2b5146103b8578063417067f3146103d857600080fd5b8063095ea7b3116101cc578063095ea7b3146102be57806310737477146102e057806314b924e21461030e578063162f205d1461032e57600080fd5b806301efccd1146101fe57806301ffc9a71461023457806306fdde0314610264578063081812fc14610286575b600080fd5b34801561020a57600080fd5b5061021e610219366004614543565b610705565b60405161022b9190614967565b60405180910390f35b34801561024057600080fd5b5061025461024f3660046143bc565b610b59565b604051901515815260200161022b565b34801561027057600080fd5b50610279610bab565b60405161022b91906148b1565b34801561029257600080fd5b506102a66102a1366004614543565b610c3d565b6040516001600160a01b03909116815260200161022b565b3480156102ca57600080fd5b506102de6102d9366004614361565b610cc5565b005b3480156102ec57600080fd5b506103006102fb366004614543565b610ddb565b60405190815260200161022b565b34801561031a57600080fd5b50610300610329366004614361565b610dfc565b34801561033a57600080fd5b5061034e610349366004614239565b610e2d565b60405161022b91906147f4565b34801561036757600080fd5b5061037b610376366004614543565b610fed565b60408051938452602084019290925215159082015260600161022b565b3480156103a457600080fd5b506102de6103b3366004614285565b6110e5565b3480156103c457600080fd5b506103006103d3366004614543565b611116565b3480156103e457600080fd5b5061034e6103f336600461438a565b611126565b34801561040457600080fd5b506102de610413366004614285565b6112c7565b610300610426366004614468565b6112e2565b34801561043757600080fd5b5061034e610446366004614239565b6115d8565b34801561045757600080fd5b506102a6610466366004614543565b611644565b34801561047757600080fd5b50610300610486366004614543565b6116bb565b34801561049757600080fd5b506103006104a6366004614239565b6116cb565b3480156104b757600080fd5b506104cb6104c63660046143f4565b611752565b60405161022b9190614793565b3480156104e457600080fd5b50610279611982565b3480156104f957600080fd5b506102de610508366004614338565b611991565b34801561051957600080fd5b506104cb61052836600461438a565b6119a0565b34801561053957600080fd5b506102de61054836600461455b565b611a88565b34801561055957600080fd5b5061056d610568366004614543565b611c04565b60405161022b9b9a99989796959493929190614807565b34801561059057600080fd5b5061030061059f366004614543565b611eb1565b3480156105b057600080fd5b506102de6105bf3660046142c0565b611ec1565b3480156105d057600080fd5b5061021e6105df366004614543565b611ef9565b3480156105f057600080fd5b506102796105ff366004614543565b612315565b34801561061057600080fd5b506009546102a6906001600160a01b031681565b34801561063057600080fd5b506104cb61063f366004614426565b61248c565b34801561065057600080fd5b5061025461065f366004614253565b6001600160a01b03918216600090815260056020908152604080832093909416825291909152205460ff1690565b34801561069957600080fd5b506102de6106a8366004614543565b612873565b6103006106bb3660046144c8565b612aee565b3480156106cc57600080fd5b506102de6106db36600461455b565b6001600160a01b031660009081526007602090815260408220805460018101825590835291200155565b61070d613e13565b600080600061071b85610fed565b919450925090506001811515146107835760405162461bcd60e51b815260206004820152602160248201527f496e76616c696420746f6b656e4964206f72206e6f74206d696e7465642079656044820152601d60fa1b60648201526084015b60405180910390fd5b600d83815481106107a457634e487b7160e01b600052603260045260246000fd5b90600052602060002090600b0201604051806101800160405290816000820180548060200260200160405190810160405280929190818152602001828054801561080d57602002820191906000526020600020905b8154815260200190600101908083116107f9575b5050509183525050600182015460209091019060ff16600281111561084257634e487b7160e01b600052602160045260246000fd5b600281111561086157634e487b7160e01b600052602160045260246000fd5b81526020016001820160019054906101000a900460ff16600681111561089757634e487b7160e01b600052602160045260246000fd5b60068111156108b657634e487b7160e01b600052602160045260246000fd5b8152602001600282015481526020016003820180546108d490614a61565b80601f016020809104026020016040519081016040528092919081815260200182805461090090614a61565b801561094d5780601f106109225761010080835404028352916020019161094d565b820191906000526020600020905b81548152906001019060200180831161093057829003601f168201915b505050918352505060048201546001600160a01b0316602082015260058201805460409092019161097d90614a61565b80601f01602080910402602001604051908101604052809291908181526020018280546109a990614a61565b80156109f65780601f106109cb576101008083540402835291602001916109f6565b820191906000526020600020905b8154815290600101906020018083116109d957829003601f168201915b50505050508152602001600682018054610a0f90614a61565b80601f0160208091040260200160405190810160405280929190818152602001828054610a3b90614a61565b8015610a885780601f10610a5d57610100808354040283529160200191610a88565b820191906000526020600020905b815481529060010190602001808311610a6b57829003601f168201915b5050509183525050600782015460ff1615156020820152600882018054604090920191610ab490614a61565b80601f0160208091040260200160405190810160405280929190818152602001828054610ae090614a61565b8015610b2d5780601f10610b0257610100808354040283529160200191610b2d565b820191906000526020600020905b815481529060010190602001808311610b1057829003601f168201915b505050918352505060098201546020820152600a9091015460ff16151560409091015295945050505050565b60006001600160e01b031982166380ac58cd60e01b1480610b8a57506001600160e01b03198216635b5e139f60e01b145b80610ba557506301ffc9a760e01b6001600160e01b03198316145b92915050565b606060008054610bba90614a61565b80601f0160208091040260200160405190810160405280929190818152602001828054610be690614a61565b8015610c335780601f10610c0857610100808354040283529160200191610c33565b820191906000526020600020905b815481529060010190602001808311610c1657829003601f168201915b5050505050905090565b6000610c48826133c2565b610ca95760405162461bcd60e51b815260206004820152602c60248201527f4552433732313a20617070726f76656420717565727920666f72206e6f6e657860448201526b34b9ba32b73a103a37b5b2b760a11b606482015260840161077a565b506000908152600460205260409020546001600160a01b031690565b6000610cd082611644565b9050806001600160a01b0316836001600160a01b03161415610d3e5760405162461bcd60e51b815260206004820152602160248201527f4552433732313a20617070726f76616c20746f2063757272656e74206f776e656044820152603960f91b606482015260840161077a565b336001600160a01b0382161480610d5a5750610d5a813361065f565b610dcc5760405162461bcd60e51b815260206004820152603860248201527f4552433732313a20617070726f76652063616c6c6572206973206e6f74206f7760448201527f6e6572206e6f7220617070726f76656420666f7220616c6c0000000000000000606482015260840161077a565b610dd683836133df565b505050565b600c8181548110610deb57600080fd5b600091825260209091200154905081565b60076020528160005260406000208181548110610e1857600080fd5b90600052602060002001600091509150505481565b606060005b600e54811015610e7657600e805480610e5b57634e487b7160e01b600052603160045260246000fd5b60019003818190600052602060002001600090559055610e32565b6000610e81846115d8565b51905060008060008060008096505b85871015610f8e57610ed0610ea48a6115d8565b8881518110610ec357634e487b7160e01b600052603260045260246000fd5b6020026020010151610fed565b9196509450915060018215151415610f7c575060009150815b600e54811015610f415784600e8281548110610f1557634e487b7160e01b600052603260045260246000fd5b90600052602060002001541415610f2f5760019250610f41565b80610f3981614a9c565b915050610ee9565b82610f7c57600e80546001810182556000919091527fbb7b4a454dc3493923482f07822329ed19e8244eff582cc204f8554c3620c3fd018590555b86610f8681614a9c565b975050610e90565b600e805480602002602001604051908101604052809291908181526020018280548015610fda57602002820191906000526020600020905b815481526020019060010190808311610fc6575b5050505050975050505050505050919050565b6000808080805b600d548210156110d0575060005b600d828154811061102357634e487b7160e01b600052603260045260246000fd5b60009182526020909120600b90910201548110156110be5785600d838154811061105d57634e487b7160e01b600052603260045260246000fd5b90600052602060002090600b0201600001828154811061108d57634e487b7160e01b600052603260045260246000fd5b906000526020600020015414156110ac579093509150600190506110de565b806110b681614a9c565b915050611002565b816110c881614a9c565b925050610ff4565b600080600094509450945050505b9193909250565b6110ef338261344d565b61110b5760405162461bcd60e51b815260040161077a90614916565b610dd6838383613533565b600a8181548110610deb57600080fd5b606060005b600e5481101561116f57600e80548061115457634e487b7160e01b600052603160045260246000fd5b6001900381819060005260206000200160009055905561112b565b5081516000908180808080805b86881015611267576111a78a8981518110610ec357634e487b7160e01b600052603260045260246000fd5b91975095509250600183151514156112555760009350600091505b600e5482101561121a5785600e83815481106111ee57634e487b7160e01b600052603260045260246000fd5b90600052602060002001541415611208576001935061121a565b8161121281614a9c565b9250506111c2565b8361125557600e80546001810182556000919091527fbb7b4a454dc3493923482f07822329ed19e8244eff582cc204f8554c3620c3fd018690555b8761125f81614a9c565b98505061117c565b600e8054806020026020016040519081016040528092919081815260200182805480156112b357602002820191906000526020600020905b81548152602001906001019080831161129f575b505050505098505050505050505050919050565b610dd683838360405180602001604052806000815250611ec1565b60006112f2600f80546001019055565b6000600860008460200151600281111561131c57634e487b7160e01b600052602160045260246000fd5b600281111561133b57634e487b7160e01b600052602160045260246000fd5b81526020019081526020016000205490506000611357600f5490565b6040805160018082528183019092529192506000919060208083019080368337019050509050818160008151811061139f57634e487b7160e01b600052603260045260246000fd5b6020026020010181815250506113b4836136d3565b3360a0860152808552600d8054600181018255600091909152855180518792600b02600080516020614b3a83398151915201916113f691839160200190613e82565b50602082015160018083018054909160ff199091169083600281111561142c57634e487b7160e01b600052602160045260246000fd5b0217905550604082015160018201805461ff00191661010083600681111561146457634e487b7160e01b600052602160045260246000fd5b0217905550606082015160028201556080820151805161148e916003840191602090910190613ecd565b5060a08201516004820180546001600160a01b0319166001600160a01b0390921691909117905560c082015180516114d0916005840191602090910190613ecd565b5060e082015180516114ec916006840191602090910190613ecd565b5061010082015160078201805460ff19169115159190911790556101208201518051611522916008840191602090910190613ecd565b50610140820151600982015561016090910151600a909101805460ff19169115159190911790556115533383613778565b60408051338152602081018490527fb7656808f0e04b4af7a20f7ef1caa7669f0d781f1ca4cba31a3ba467880766c9910160405180910390a161159682876138ab565b6010546115ad906001600160a01b03166001611991565b5033600090815260076020908152604082208054600181018255908352912001819055949350505050565b6001600160a01b03811660009081526007602090815260409182902080548351818402810184019094528084526060939283018282801561163857602002820191906000526020600020905b815481526020019060010190808311611624575b50505050509050919050565b6000818152600260205260408120546001600160a01b031680610ba55760405162461bcd60e51b815260206004820152602960248201527f4552433732313a206f776e657220717565727920666f72206e6f6e657869737460448201526832b73a103a37b5b2b760b91b606482015260840161077a565b600b8181548110610deb57600080fd5b60006001600160a01b0382166117365760405162461bcd60e51b815260206004820152602a60248201527f4552433732313a2062616c616e636520717565727920666f7220746865207a65604482015269726f206164647265737360b01b606482015260840161077a565b506001600160a01b031660009081526003602052604090205490565b60608060405160200161176f906319dbdb1960e21b815260040190565b60405160208183030381529060405280519060200120836040516020016117969190614715565b6040516020818303038152906040528051906020012014156118125761180b600a80548060200260200160405190810160405280929190818152602001828054801561180157602002820191906000526020600020905b8154815260200190600101908083116117ed575b5050505050611126565b9050611972565b6040516539b4b63b32b960d11b6020820152602601604051602081830303815290604052805190602001208360405160200161184e9190614715565b6040516020818303038152906040528051906020012014156118c15761180b600b80548060200260200160405190810160405280929190818152602001828054801561180157602002820191906000526020600020908154815260200190600101908083116117ed575050505050611126565b60405164313937b73d60d91b602082015260250160405160208183030381529060405280519060200120836040516020016118fc9190614715565b6040516020818303038152906040528051906020012014156119725761196f600c80548060200260200160405190810160405280929190818152602001828054801561180157602002820191906000526020600020908154815260200190600101908083116117ed575050505050611126565b90505b61197b816119a0565b9392505050565b606060018054610bba90614a61565b61199c338383613936565b5050565b6060600082516001600160401b038111156119cb57634e487b7160e01b600052604160045260246000fd5b604051908082528060200260200182016040528015611a0457816020015b6119f1613e13565b8152602001906001900390816119e95790505b50905060005b8351811015611a8157611a43848281518110611a3657634e487b7160e01b600052603260045260246000fd5b6020026020010151611ef9565b828281518110611a6357634e487b7160e01b600052603260045260246000fd5b60200260200101819052508080611a7990614a9c565b915050611a0a565b5092915050565b6000805b6001600160a01b038316600090815260076020526040902054811015611b12576001600160a01b0383166000908152600760205260409020805485919083908110611ae757634e487b7160e01b600052603260045260246000fd5b90600052602060002001541415611b0057809150611b12565b80611b0a81614a9c565b915050611a8c565b506001600160a01b03821660009081526007602052604090208054611b3990600190614a1e565b81548110611b5757634e487b7160e01b600052603260045260246000fd5b906000526020600020015460076000846001600160a01b03166001600160a01b031681526020019081526020016000208281548110611ba657634e487b7160e01b600052603260045260246000fd5b60009182526020808320909101929092556001600160a01b0384168152600790915260409020805480611be957634e487b7160e01b600052603160045260246000fd5b60019003818190600052602060002001600090559055505050565b600d8181548110611c1457600080fd5b60009182526020909120600b909102016001810154600282015460038301805460ff8085169650610100909404909316939192611c5090614a61565b80601f0160208091040260200160405190810160405280929190818152602001828054611c7c90614a61565b8015611cc95780601f10611c9e57610100808354040283529160200191611cc9565b820191906000526020600020905b815481529060010190602001808311611cac57829003601f168201915b505050600484015460058501805494956001600160a01b03909216949193509150611cf390614a61565b80601f0160208091040260200160405190810160405280929190818152602001828054611d1f90614a61565b8015611d6c5780601f10611d4157610100808354040283529160200191611d6c565b820191906000526020600020905b815481529060010190602001808311611d4f57829003601f168201915b505050505090806006018054611d8190614a61565b80601f0160208091040260200160405190810160405280929190818152602001828054611dad90614a61565b8015611dfa5780601f10611dcf57610100808354040283529160200191611dfa565b820191906000526020600020905b815481529060010190602001808311611ddd57829003601f168201915b5050506007840154600885018054949560ff909216949193509150611e1e90614a61565b80601f0160208091040260200160405190810160405280929190818152602001828054611e4a90614a61565b8015611e975780601f10611e6c57610100808354040283529160200191611e97565b820191906000526020600020905b815481529060010190602001808311611e7a57829003601f168201915b505050506009830154600a9093015491929160ff1690508b565b600e8181548110610deb57600080fd5b611ecb338361344d565b611ee75760405162461bcd60e51b815260040161077a90614916565b611ef384848484613a05565b50505050565b611f01613e13565b600d548210611f425760405162461bcd60e51b815260206004820152600d60248201526c092dcecc2d8d2c840d2dcc8caf609b1b604482015260640161077a565b600d8281548110611f6357634e487b7160e01b600052603260045260246000fd5b90600052602060002090600b02016040518061018001604052908160008201805480602002602001604051908101604052809291908181526020018280548015611fcc57602002820191906000526020600020905b815481526020019060010190808311611fb8575b5050509183525050600182015460209091019060ff16600281111561200157634e487b7160e01b600052602160045260246000fd5b600281111561202057634e487b7160e01b600052602160045260246000fd5b81526020016001820160019054906101000a900460ff16600681111561205657634e487b7160e01b600052602160045260246000fd5b600681111561207557634e487b7160e01b600052602160045260246000fd5b81526020016002820154815260200160038201805461209390614a61565b80601f01602080910402602001604051908101604052809291908181526020018280546120bf90614a61565b801561210c5780601f106120e15761010080835404028352916020019161210c565b820191906000526020600020905b8154815290600101906020018083116120ef57829003601f168201915b505050918352505060048201546001600160a01b0316602082015260058201805460409092019161213c90614a61565b80601f016020809104026020016040519081016040528092919081815260200182805461216890614a61565b80156121b55780601f1061218a576101008083540402835291602001916121b5565b820191906000526020600020905b81548152906001019060200180831161219857829003601f168201915b505050505081526020016006820180546121ce90614a61565b80601f01602080910402602001604051908101604052809291908181526020018280546121fa90614a61565b80156122475780601f1061221c57610100808354040283529160200191612247565b820191906000526020600020905b81548152906001019060200180831161222a57829003601f168201915b5050509183525050600782015460ff161515602082015260088201805460409092019161227390614a61565b80601f016020809104026020016040519081016040528092919081815260200182805461229f90614a61565b80156122ec5780601f106122c1576101008083540402835291602001916122ec565b820191906000526020600020905b8154815290600101906020018083116122cf57829003601f168201915b505050918352505060098201546020820152600a9091015460ff16151560409091015292915050565b6060612320826133c2565b6123865760405162461bcd60e51b815260206004820152603160248201527f45524337323155524953746f726167653a2055524920717565727920666f72206044820152703737b732bc34b9ba32b73a103a37b5b2b760791b606482015260840161077a565b6000828152600660205260408120805461239f90614a61565b80601f01602080910402602001604051908101604052809291908181526020018280546123cb90614a61565b80156124185780601f106123ed57610100808354040283529160200191612418565b820191906000526020600020905b8154815290600101906020018083116123fb57829003601f168201915b50505050509050600061243660408051602081019091526000815290565b9050805160001415612449575092915050565b81511561247b578082604051602001612463929190614731565b60405160208183030381529060405292505050919050565b61248484613a38565b949350505050565b606060005b600e548110156124d557600e8054806124ba57634e487b7160e01b600052603160045260246000fd5b60019003818190600052602060002001600090559055612491565b6040516319dbdb1960e21b602082015260009060240160405160208183030381529060405280519060200120856040516020016125129190614715565b6040516020818303038152906040528051906020012014156125f157600091505b600a548210156125ec57336001600160a01b031661257b600a848154811061256b57634e487b7160e01b600052603260045260246000fd5b9060005260206000200154611644565b6001600160a01b031614156125da57600e600a83815481106125ad57634e487b7160e01b600052603260045260246000fd5b60009182526020808320909101548354600181018555938352912090910155806125d681614a9c565b9150505b816125e481614a9c565b925050612533565b612805565b6040516539b4b63b32b960d11b6020820152602601604051602081830303815290604052805190602001208560405160200161262d9190614715565b6040516020818303038152906040528051906020012014156126fb57600091505b600a548210156125ec5760009050336001600160a01b031661268a600b848154811061256b57634e487b7160e01b600052603260045260246000fd5b6001600160a01b031614156126e957600e600b83815481106126bc57634e487b7160e01b600052603260045260246000fd5b60009182526020808320909101548354600181018555938352912090910155806126e581614a9c565b9150505b816126f381614a9c565b92505061264e565b6040516562726f6e7a6560d01b602082015260260160405160208183030381529060405280519060200120856040516020016127379190614715565b60405160208183030381529060405280519060200120141561280557600091505b600a548210156128055760009050336001600160a01b0316612794600c848154811061256b57634e487b7160e01b600052603260045260246000fd5b6001600160a01b031614156127f357600e600c83815481106127c657634e487b7160e01b600052603260045260246000fd5b60009182526020808320909101548354600181018555938352912090910155806127ef81614a9c565b9150505b816127fd81614a9c565b925050612758565b600061285e600e80548060200260200160405190810160405280929190818152602001828054801561180157602002820191906000526020600020908154815260200190600101908083116117ed575050505050611126565b9050612869816119a0565b9695505050505050565b600080600061288184610fed565b919450925090508015612ae557600d83815481106128af57634e487b7160e01b600052603260045260246000fd5b60009182526020909120600b90910201546001141561298757600d83815481106128e957634e487b7160e01b600052603260045260246000fd5b600091825260208220600b90910201906129038282613f40565b60018201805461ffff19169055600060028301819055612927906003840190613f5e565b6004820180546001600160a01b0319169055612947600583016000613f5e565b612955600683016000613f5e565b60078201805460ff1916905561296f600883016000613f5e565b5060006009820155600a01805460ff19169055612ae5565b600d83815481106129a857634e487b7160e01b600052603260045260246000fd5b90600052602060002090600b02016000016001600d85815481106129dc57634e487b7160e01b600052603260045260246000fd5b60009182526020909120600b90910201546129f79190614a1e565b81548110612a1557634e487b7160e01b600052603260045260246000fd5b9060005260206000200154600d8481548110612a4157634e487b7160e01b600052603260045260246000fd5b90600052602060002090600b02016000018381548110612a7157634e487b7160e01b600052603260045260246000fd5b9060005260206000200181905550600d8381548110612aa057634e487b7160e01b600052603260045260246000fd5b90600052602060002090600b0201600001805480612ace57634e487b7160e01b600052603160045260246000fd5b600190038181906000526020600020016000905590555b611ef384613b0f565b6002600090815260086020527f6add646517a5b0f6793cd5891b7937d28a5b2981a5d88ebc7cd776088fea9041548190612b299084906149ff565b600160005260086020527fad67d757c34507f157cacfa2e3153e9f260a2244f30428821be7be64587ac55f54612b609086906149ff565b6000805260086020527f5eff886ea0ce6ca488a3d6e336d6c0f75f46d19b42c06ce5ee98e42c96d256c754612b969088906149ff565b612ba091906149d3565b612baa91906149d3565b9050612bb5816136d3565b6000856001600160401b03811115612bdd57634e487b7160e01b600052604160045260246000fd5b604051908082528060200260200182016040528015612c06578160200160208202803683370190505b5090506000856001600160401b03811115612c3157634e487b7160e01b600052604160045260246000fd5b604051908082528060200260200182016040528015612c5a578160200160208202803683370190505b5090506000856001600160401b03811115612c8557634e487b7160e01b600052604160045260246000fd5b604051908082528060200260200182016040528015612cae578160200160208202803683370190505b50905060005b86612cbf898b6149d3565b612cc991906149d3565b811015612ee757612cde600f80546001019055565b6000612ce9600f5490565b9050612cf53382613778565b60408051338152602081018390527fb7656808f0e04b4af7a20f7ef1caa7669f0d781f1ca4cba31a3ba467880766c9910160405180910390a1612d38818d6138ab565b601054612d4f906001600160a01b03166001611991565b3360009081526007602090815260408220805460018101825590835291200181905589821015612ddf5780858381518110612d9a57634e487b7160e01b600052603260045260246000fd5b6020908102919091010152600a80546001810182556000919091527fc65a7bb8d6351c1cf70c95a316cc6a92839c986682d98bc35f958f4883f9d2a801819055612ed4565b612de9898b6149d3565b821015612e5f578084612dfc8c85614a1e565b81518110612e1a57634e487b7160e01b600052603260045260246000fd5b6020908102919091010152600b80546001810182556000919091527f0175b7a638427703f0dbe7bb9bbf987a2551717b34e79f33b5b1008d1fa01db901819055612ed4565b8083612e6b8b8d6149d3565b612e759085614a1e565b81518110612e9357634e487b7160e01b600052603260045260246000fd5b6020908102919091010152600c80546001810182556000919091527fdf6966c971051c3d54ec59162606531493a51404a002842f56009d7e5cf4a8c7018190555b5080612edf81614a9c565b915050612cb4565b503360a08a015282895260006020808b01829052600d805460018101825592528a5180518c93600b02600080516020614b3a8339815191520192612f2f928492910190613e82565b50602082015160018083018054909160ff1990911690836002811115612f6557634e487b7160e01b600052602160045260246000fd5b0217905550604082015160018201805461ff001916610100836006811115612f9d57634e487b7160e01b600052602160045260246000fd5b02179055506060820151600282015560808201518051612fc7916003840191602090910190613ecd565b5060a08201516004820180546001600160a01b0319166001600160a01b0390921691909117905560c08201518051613009916005840191602090910190613ecd565b5060e08201518051613025916006840191602090910190613ecd565b5061010082015160078201805460ff1916911515919091179055610120820151805161305b916008840191602090910190613ecd565b50610140820151600982015561016090910151600a909101805460ff1916911515919091179055818952600160208a0181905250600d8054600181018255600091909152895180518b92600b02600080516020614b3a83398151915201916130c891839160200190613e82565b50602082015160018083018054909160ff19909116908360028111156130fe57634e487b7160e01b600052602160045260246000fd5b0217905550604082015160018201805461ff00191661010083600681111561313657634e487b7160e01b600052602160045260246000fd5b02179055506060820151600282015560808201518051613160916003840191602090910190613ecd565b5060a08201516004820180546001600160a01b0319166001600160a01b0390921691909117905560c082015180516131a2916005840191602090910190613ecd565b5060e082015180516131be916006840191602090910190613ecd565b5061010082015160078201805460ff191691151591909117905561012082015180516131f4916008840191602090910190613ecd565b50610140820151600982015561016090910151600a909101805460ff1916911515919091179055808952600260208a0181905250600d8054600181018255600091909152895180518b92600b02600080516020614b3a833981519152019161326191839160200190613e82565b50602082015160018083018054909160ff199091169083600281111561329757634e487b7160e01b600052602160045260246000fd5b0217905550604082015160018201805461ff0019166101008360068111156132cf57634e487b7160e01b600052602160045260246000fd5b021790555060608201516002820155608082015180516132f9916003840191602090910190613ecd565b5060a08201516004820180546001600160a01b0319166001600160a01b0390921691909117905560c0820151805161333b916005840191602090910190613ecd565b5060e08201518051613357916006840191602090910190613ecd565b5061010082015160078201805460ff1916911515919091179055610120820151805161338d916008840191602090910190613ecd565b50610140820151600982015561016090910151600a909101805460ff1916911515919091179055509298975050505050505050565b6000908152600260205260409020546001600160a01b0316151590565b600081815260046020526040902080546001600160a01b0319166001600160a01b038416908117909155819061341482611644565b6001600160a01b03167f8c5be1e5ebec7d5bd14f71427d1e84f3dd0314c0f7b2291e5b200ac8c7c3b92560405160405180910390a45050565b6000613458826133c2565b6134b95760405162461bcd60e51b815260206004820152602c60248201527f4552433732313a206f70657261746f7220717565727920666f72206e6f6e657860448201526b34b9ba32b73a103a37b5b2b760a11b606482015260840161077a565b60006134c483611644565b9050806001600160a01b0316846001600160a01b031614806134ff5750836001600160a01b03166134f484610c3d565b6001600160a01b0316145b8061248457506001600160a01b0380821660009081526005602090815260408083209388168352929052205460ff16612484565b826001600160a01b031661354682611644565b6001600160a01b0316146135ae5760405162461bcd60e51b815260206004820152602960248201527f4552433732313a207472616e73666572206f6620746f6b656e2074686174206960448201526839903737ba1037bbb760b91b606482015260840161077a565b6001600160a01b0382166136105760405162461bcd60e51b8152602060048201526024808201527f4552433732313a207472616e7366657220746f20746865207a65726f206164646044820152637265737360e01b606482015260840161077a565b61361b6000826133df565b6001600160a01b0383166000908152600360205260408120805460019290613644908490614a1e565b90915550506001600160a01b03821660009081526003602052604081208054600192906136729084906149d3565b909155505060008181526002602052604080822080546001600160a01b0319166001600160a01b0386811691821790925591518493918716917fddf252ad1be2c89b69c2b068fc378daa952ba7f163c4a11628f55a4df523b3ef91a4505050565b3433828210156137315760405162461bcd60e51b8152602060048201526024808201527f496e73756666696369656e74206574682073656e7420746f206d696e7420746f6044820152636b656e7360e01b606482015260840161077a565b81831015610dd6576001600160a01b0381166108fc6137508585614a1e565b6040518115909202916000818181858888f19350505050158015611ef3573d6000803e3d6000fd5b6001600160a01b0382166137ce5760405162461bcd60e51b815260206004820181905260248201527f4552433732313a206d696e7420746f20746865207a65726f2061646472657373604482015260640161077a565b6137d7816133c2565b156138245760405162461bcd60e51b815260206004820152601c60248201527f4552433732313a20746f6b656e20616c7265616479206d696e74656400000000604482015260640161077a565b6001600160a01b038216600090815260036020526040812080546001929061384d9084906149d3565b909155505060008181526002602052604080822080546001600160a01b0319166001600160a01b03861690811790915590518392907fddf252ad1be2c89b69c2b068fc378daa952ba7f163c4a11628f55a4df523b3ef908290a45050565b6138b4826133c2565b6139175760405162461bcd60e51b815260206004820152602e60248201527f45524337323155524953746f726167653a2055524920736574206f66206e6f6e60448201526d32bc34b9ba32b73a103a37b5b2b760911b606482015260840161077a565b60008281526006602090815260409091208251610dd692840190613ecd565b816001600160a01b0316836001600160a01b031614156139985760405162461bcd60e51b815260206004820152601960248201527f4552433732313a20617070726f766520746f2063616c6c657200000000000000604482015260640161077a565b6001600160a01b03838116600081815260056020908152604080832094871680845294825291829020805460ff191686151590811790915591519182527f17307eab39ab6107e8899845ad3d59bd9653f200f220920489ca2b5937696c31910160405180910390a3505050565b613a10848484613533565b613a1c84848484613b52565b611ef35760405162461bcd60e51b815260040161077a906148c4565b6060613a43826133c2565b613aa75760405162461bcd60e51b815260206004820152602f60248201527f4552433732314d657461646174613a2055524920717565727920666f72206e6f60448201526e3732bc34b9ba32b73a103a37b5b2b760891b606482015260840161077a565b6000613abe60408051602081019091526000815290565b90506000815111613ade576040518060200160405280600081525061197b565b80613ae884613c5f565b604051602001613af9929190614731565b6040516020818303038152906040529392505050565b613b1881613d78565b60008181526006602052604090208054613b3190614a61565b159050613b4f576000818152600660205260408120613b4f91613f5e565b50565b60006001600160a01b0384163b15613c5457604051630a85bd0160e11b81526001600160a01b0385169063150b7a0290613b96903390899088908890600401614760565b602060405180830381600087803b158015613bb057600080fd5b505af1925050508015613be0575060408051601f3d908101601f19168201909252613bdd918101906143d8565b60015b613c3a573d808015613c0e576040519150601f19603f3d011682016040523d82523d6000602084013e613c13565b606091505b508051613c325760405162461bcd60e51b815260040161077a906148c4565b805181602001fd5b6001600160e01b031916630a85bd0160e11b149050612484565b506001949350505050565b606081613c835750506040805180820190915260018152600360fc1b602082015290565b8160005b8115613cad5780613c9781614a9c565b9150613ca69050600a836149eb565b9150613c87565b6000816001600160401b03811115613cd557634e487b7160e01b600052604160045260246000fd5b6040519080825280601f01601f191660200182016040528015613cff576020820181803683370190505b5090505b841561248457613d14600183614a1e565b9150613d21600a86614ab7565b613d2c9060306149d3565b60f81b818381518110613d4f57634e487b7160e01b600052603260045260246000fd5b60200101906001600160f81b031916908160001a905350613d71600a866149eb565b9450613d03565b6000613d8382611644565b9050613d906000836133df565b6001600160a01b0381166000908152600360205260408120805460019290613db9908490614a1e565b909155505060008281526002602052604080822080546001600160a01b0319169055518391906001600160a01b038416907fddf252ad1be2c89b69c2b068fc378daa952ba7f163c4a11628f55a4df523b3ef908390a45050565b60408051610180810190915260608152602081016000815260200160008152602001600081526020016060815260200160006001600160a01b03168152602001606081526020016060815260200160001515815260200160608152602001600081526020016000151581525090565b828054828255906000526020600020908101928215613ebd579160200282015b82811115613ebd578251825591602001919060010190613ea2565b50613ec9929150613f94565b5090565b828054613ed990614a61565b90600052602060002090601f016020900481019282613efb5760008555613ebd565b82601f10613f1457805160ff1916838001178555613ebd565b82800160010185558215613ebd5791820182811115613ebd578251825591602001919060010190613ea2565b5080546000825590600052602060002090810190613b4f9190613f94565b508054613f6a90614a61565b6000825580601f10613f7a575050565b601f016020900490600052602060002090810190613b4f91905b5b80821115613ec95760008155600101613f95565b60006001600160401b03831115613fc257613fc2614b0d565b613fd5601f8401601f19166020016149a3565b9050828152838383011115613fe957600080fd5b828260208301376000602084830101529392505050565b80356001600160a01b038116811461401757600080fd5b919050565b600082601f83011261402c578081fd5b813560206001600160401b0382111561404757614047614b0d565b8160051b6140568282016149a3565b838152828101908684018388018501891015614070578687fd5b8693505b85841015614092578035835260019390930192918401918401614074565b50979650505050505050565b8035801515811461401757600080fd5b80356007811061401757600080fd5b80356003811061401757600080fd5b600082601f8301126140dc578081fd5b61197b83833560208501613fa9565b600061018082840312156140fd578081fd5b61410561497a565b905081356001600160401b038082111561411e57600080fd5b61412a8583860161401c565b8352614138602085016140bd565b6020840152614149604085016140ae565b604084015260608401356060840152608084013591508082111561416c57600080fd5b614178858386016140cc565b608084015261418960a08501614000565b60a084015260c08401359150808211156141a257600080fd5b6141ae858386016140cc565b60c084015260e08401359150808211156141c757600080fd5b6141d3858386016140cc565b60e084015261010091506141e882850161409e565b828401526101209150818401358181111561420257600080fd5b61420e868287016140cc565b8385015250505061014080830135818301525061016061422f81840161409e565b9082015292915050565b60006020828403121561424a578081fd5b61197b82614000565b60008060408385031215614265578081fd5b61426e83614000565b915061427c60208401614000565b90509250929050565b600080600060608486031215614299578081fd5b6142a284614000565b92506142b060208501614000565b9150604084013590509250925092565b600080600080608085870312156142d5578081fd5b6142de85614000565b93506142ec60208601614000565b92506040850135915060608501356001600160401b0381111561430d578182fd5b8501601f8101871361431d578182fd5b61432c87823560208401613fa9565b91505092959194509250565b6000806040838503121561434a578182fd5b61435383614000565b915061427c6020840161409e565b60008060408385031215614373578182fd5b61437c83614000565b946020939093013593505050565b60006020828403121561439b578081fd5b81356001600160401b038111156143b0578182fd5b6124848482850161401c565b6000602082840312156143cd578081fd5b813561197b81614b23565b6000602082840312156143e9578081fd5b815161197b81614b23565b600060208284031215614405578081fd5b81356001600160401b0381111561441a578182fd5b612484848285016140cc565b60008060408385031215614438578182fd5b82356001600160401b0381111561444d578283fd5b614459858286016140cc565b92505061427c60208401614000565b6000806040838503121561447a578182fd5b82356001600160401b0380821115614490578384fd5b61449c868387016140cc565b935060208501359150808211156144b1578283fd5b506144be858286016140eb565b9150509250929050565b600080600080600060a086880312156144df578283fd5b85356001600160401b03808211156144f5578485fd5b61450189838a016140cc565b96506020880135915080821115614516578485fd5b50614523888289016140eb565b959895975050505060408401359360608101359360809091013592509050565b600060208284031215614554578081fd5b5035919050565b6000806040838503121561456d578182fd5b8235915061427c60208401614000565b6000815180845260208085019450808401835b838110156145ac57815187529582019590820190600101614590565b509495945050505050565b600081518084526145cf816020860160208601614a35565b601f01601f19169290920160200192915050565b600781106145f3576145f3614af7565b9052565b600381106145f3576145f3614af7565b6000610180825181855261461d8286018261457d565b915050602083015161463260208601826145f7565b50604083015161464560408601826145e3565b50606083015160608501526080830151848203608086015261466782826145b7565b91505060a083015161468460a08601826001600160a01b03169052565b5060c083015184820360c086015261469c82826145b7565b91505060e083015184820360e08601526146b682826145b7565b915050610100808401516146cd8287018215159052565b505061012080840151858303828701526146e783826145b7565b925050506101408084015181860152506101608084015161470b8287018215159052565b5090949350505050565b60008251614727818460208701614a35565b9190910192915050565b60008351614743818460208801614a35565b835190830190614757818360208801614a35565b01949350505050565b6001600160a01b0385811682528416602082015260408101839052608060608201819052600090612869908301846145b7565b6000602080830181845280855180835260408601915060408160051b8701019250838701855b828110156147e757603f198886030184526147d5858351614607565b945092850192908501906001016147b9565b5092979650505050505050565b60208152600061197b602083018461457d565b6000610160614816838f6145f7565b614823602084018e6145e3565b8b604084015280606084015261483b8184018c6145b7565b6001600160a01b038b16608085015283810360a0850152905061485e818a6145b7565b905082810360c084015261487281896145b7565b905086151560e084015282810361010084015261488f81876145b7565b6101208401959095525050901515610140909101529998505050505050505050565b60208152600061197b60208301846145b7565b60208082526032908201527f4552433732313a207472616e7366657220746f206e6f6e20455243373231526560408201527131b2b4bb32b91034b6b83632b6b2b73a32b960711b606082015260800190565b60208082526031908201527f4552433732313a207472616e736665722063616c6c6572206973206e6f74206f6040820152701ddb995c881b9bdc88185c1c1c9bdd9959607a1b606082015260800190565b60208152600061197b6020830184614607565b60405161018081016001600160401b038111828210171561499d5761499d614b0d565b60405290565b604051601f8201601f191681016001600160401b03811182821017156149cb576149cb614b0d565b604052919050565b600082198211156149e6576149e6614acb565b500190565b6000826149fa576149fa614ae1565b500490565b6000816000190483118215151615614a1957614a19614acb565b500290565b600082821015614a3057614a30614acb565b500390565b60005b83811015614a50578181015183820152602001614a38565b83811115611ef35750506000910152565b600181811c90821680614a7557607f821691505b60208210811415614a9657634e487b7160e01b600052602260045260246000fd5b50919050565b6000600019821415614ab057614ab0614acb565b5060010190565b600082614ac657614ac6614ae1565b500690565b634e487b7160e01b600052601160045260246000fd5b634e487b7160e01b600052601260045260246000fd5b634e487b7160e01b600052602160045260246000fd5b634e487b7160e01b600052604160045260246000fd5b6001600160e01b031981168114613b4f57600080fdfed7b6990105719101dabeb77144f2a3385c8033acd3af97e9423a695e81ad1eb5a2646970667358221220cc38048e6422a24ff6bd268bfec7ab27c1270e1d302afb67d69e98faafbd7ea264736f6c63430008040033",
  "linkReferences": {},
  "deployedLinkReferences": {}
}